:020000040800F2
:100000003005002051330008D9320008DB320008E7
:10001000DD320008DF320008E13200080000000095
:10002000000000000000000000000000E3320008B3
:10003000E532000800000000E7320008E93200085D
:1000400085330008893300088D3300089133000898
:1000500095330008993300089D330008A133000848
:10006000A5330008A9330008AD330008ED320008BD
:10007000B1330008B5330008B9330008BD330008B8
:10008000C1330008C5330008C9330008CD33000868
:10009000D1330008D5330008D9330008DD33000818
:1000A000E1330008E5330008E9330008ED330008C8
:1000B000F1330008F5330008F9330008FD33000878
:1000C0000134000805340008093400080D34000824
:1000D0001134000815340008193400081D340008D4
:1000E0002134000825340008293400082DE9FC4794
:1000F00004000FF2BC6803D14FF4B87100F015FB97
:10010000206830B110F00F0F03D140F2711100F0F0
:100110000CFB2078DFF86C76C10756D560680028A4
:100120001CBFB0F5803FB0F5A02F03D040F277118F
:1001300000F0FBFA786800F00C00042807D078681B
:1001400000F00C0008280BD17868C10308D5396885
:1001500088033AD56068002840F0C0800120DDE1C6
:100160006068B0F5803F0FD038B9396821F480312C
:100170003960386820F4802009E0B0F5A02F396894
:1001800007D141F480213960386840F4803038600C
:1001900006E021F4803139603A6822F480223A6026
:1001A000606868B100F03CFB05463968880300F1DF
:1001B000958000F035FB401B6528F6D30320ADE1A8
:1001C00000F02EFB05463868810340F1878000F07F
:1001D00027FB401B6528F6D3F0E700F021FB401B0E
:1001E000022840F2C380E9E7206970B10121316043
:1001F00000F016FB05463868810700F1FF8000F02B
:100200000FFB401B0228F6D9D8E7306000F008FB4E
:1002100005463868810765D500F002FB401B0228BF
:10022000F7D9CBE70020286000F0FAFA0546786A93
:10023000810740F1AE8000F0F3FA401B0228F6D9A6
:10024000BCE708B9386A09E00528386A06D140F0E9
:1002500004003862386A40F0010005E040084000C0
:100260003862386A20F00400386241F28939E06867
:1002700060B100F0D5FA8246386A810700F1CB8080
:1002800000F0CEFA00F043FAF6D397E700F0C8FA90
:100290008246386A810740F1BE8000F0C1FA00F062
:1002A00036FAF6D38AE700F0BBFA401B022840F288
:1002B0000C8183E700F0B4FA001B022840F2298188
:1002C0007CE700F02DF904463868810140F1258172
:1002D00000F0A6FA001B0228F6D96FE72078DFF8B5
:1002E000B06481072BD52069002818BF012803D0EE
:1002F00040F2AB1100F019FA6069202803D34FF4E3
:10030000D67100F012FA786810F00C0F09D07868F6
:1003100000F00C0008287FF467AF7868C1033FF550
:1003200063AF3968880703D5206901287FF416AFC9
:100330003968606921F0F80141EAC001396021782B
:10034000080726D5A069DFF84C54002807D00128FB
:1003500007D04FF4F67100F0E8F9A06900283FF4E7
:1003600061AF0121296000F05BFA0546786A8107D8
:100370007FF533AFDFF810140868C0084FF47A72C5
:10038000B0FBF2F2009200BF0098411E00280091DD
:10039000F9D12078410743D5E068002500281CBF2B
:1003A0000128052803D040F21B2100F0BEF9F869AE
:1003B000C10009D4F86940F08050F8610125F8695E
:1003C00000F0805000900098DFF8CC93D9F800102E
:1003D000C8051BD4D9F8000040F48070C9F80000AB
:1003E00000F01EFA8246D9F80010C8050ED400F0BD
:1003F00017FAA0EB0A006528F5D3DFE638686169D3
:1004000020F0F80040EAC100386098E7E068012871
:100410007FF417AF1EE71DB1F86920F08050F86136
:10042000E069002879D0012818BF022806D040F2E0
:10043000B92100F07AF9E06900286ED0796801F0FE
:100440000C0108293FF48AAEE06902287FF439AF35
:10045000206A002818BFB0F5803F03D040F2C221C7
:1004600000F063F9606A002818BFB0F5802F29D02A
:10047000B0F5002F18BFB0F5402F23D0B0F5801F86
:1004800018BFB0F5A01F1DD0B0F5C01F18BFB0F544
:10049000E01F17D0B0F5001F18BFB0F5101F11D026
:1004A000B0F5201F18BFB0F5301F0BD0B0F5401FBE
:1004B0001CBFB0F5501FB0F5601F03D040F2C32140
:1004C00000F033F900F02CF80546386881013FF55B
:1004D000EAAE206AB0F5803F0FD1A068002818BFAF
:1004E000B0F5003F03D040F2D92100F01EF9796841
:1004F000A06821F40031014379607968206A21F411
:1005000074110143606A01437960012000F009F829
:100510000446386881017FF5CDAE0020BDE8F6873E
:100520000020306600F07CB92DE9F04704000D464C
:100530000FF27C2803D140F22E3100F0F6F820783B
:1005400010F00F0F03D140F22F3100F0EEF8002D24
:100550001CBF012D022D03D04FF44C7100F0E5F8C3
:10056000DFF83872386800F00700A84202D200F0C5
:10057000D2F846D12068DFF80C62810728D5400701
:1005800003D5706840F4E06070602178080703D5F7
:10059000706840F460507060A068002818BF802820
:1005A00010D0902818BFA0280CD0B02818BFC028A1
:1005B00008D0D0281CBFE028F02803D040F25631E4
:1005C00000F0B3F87168A06821F0F0010143716098
:1005D0002078C10740F18780606898B1012808D071
:1005E00002280BD040F25D3100F09FF860680128CE
:1005F00002D13068810303E0022803D13068810111
:1006000003D478E03168880775D571686068890817
:1006100040EA8101716041F2893900F001F98246B6
:10062000606801280BD1706800F00C0004285AD0D3
:1006300000F0F6F800F06BF8F5D3032051E0022843
:100640005BD1706800F00C0008284CD000F0E8F88E
:1006500000F05DF8F5D3F0E72078410717D5E068A2
:10066000002818BFB0F5806F0BD0B0F5A06F1CBF8D
:10067000B0F5C06FB0F5E06F03D040F2B13100F0DB
:1006800054F87168E06821F4E061014371602078FA
:10069000010718D52069002818BFB0F5806F0BD06E
:1006A000B0F5A06F1CBFB0F5C06FB0F5E06F03D020
:1006B0004FF46E7100F039F87068216920F46050D1
:1006C00040EAC100706000F033F872683449C2F348
:1006D0000312895C2C4AC8401060002000F0A6F884
:1006E0000020BDE8F087386800F007008542B3D2EB
:1006F00000F011F8B0D00120F3E7706810F00C0F93
:10070000F1D000F08DF800F002F8F6D395E7A0EBF9
:100710000A00484570473968C90845EAC10139608F
:10072000386800F00700A8427047404600F045BA1C
:100730001C4916480A6802F00C03082B00D07047C9
:1007400010B500BF31A4C2F38343D203E35C09D5E3
:10075000096800BF31A2C1F340415843515CB0FB6E
:10076000F1F010BD18461049484310BD06480D4A27
:10077000006813680D49C3F3C222895CC840704702
:1007800000000000001002400C00002000127A005F
:1007900000004242800442420070004000200240BB
:1007A000103200080410024000093D007C330008AC
:1007B000453A5C4F4E4520574845454C20484F56DA
:1007C0004552424F4152445C64656C6574655C6D92
:1007D0006173746572325C447269766572735C53DE
:1007E000544D3332463178785F48414C5F447269EA
:1007F0007665725C5372635C73746D333266317804
:10080000785F68616C5F7263632E630002030405A6
:10081000060708090A0B0C0D0E0F1010010200004C
:1008200001484068704700BF0000002038B50D4DFA
:100830000D4A297804464FF47A70B0FBF1F1106844
:10084000B0FBF1F000F025FA50B9102C08D20022CC
:1008500021464FF0FF3000F0DBF9AC60002032BDE4
:10086000012032BD000000200C0000202DE9FC41D9
:10087000AD4C20696569E269A36942F21076010C0A
:10088000B542C0F30B0011D26062A1626D1CC018AA
:100890008918B5426561A061E16106D1B0FBF6F04F
:1008A000A0613046B1FBF0F0E061F3E000F2FF70D0
:1008B000C01A606201F2FF71891A41F2FD72101ACA
:1008C000401AA162E0624FF48071984D284600F012
:1008D00097FB00B1012020704FF40071284600F012
:1008E0008FFB00B1012060704FF48061284600F05A
:1008F00087FB00B10120A0704FF6DD5C617827789E
:1009000094F802E0E3688A4D8A4E81F0010212EA0F
:10091000070018BF0120E0708EF0010212EA01000A
:1009200018BF0120207187F0010212EA0E0018BFE3
:10093000012060710A20226B4243E078002840F6D3
:10094000A23832D0616A5B1AD2180A2192FBF1F107
:100950000029636348BF002102D44145C8BF414616
:1009600003EB43004018216348BF002002D44045F8
:10097000C8BF4046A0636FEA0E00810041EA4E0105
:1009800001F0070141F00101CA43120702F0E04201
:10099000A16042EA01323260400229680CEA01019A
:1009A00041EA4E1100F4007064E02079002832D052
:1009B000A16A5B1AD2180A2192FBF1F10029636344
:1009C00048BF002102D44145C8BF414603EB430064
:1009D0004018216348BF002002D44045C8BF4046AC
:1009E000A063F84300F0010141EA870141F00201F0
:1009F000A1604000A168CA43120702F0E04242EA47
:100A00000132326000F0020029680CEA010108435B
:100A100040EA47202FE0E06A1B1A63631846121869
:100A20000A2392FBF3F2002A48BF002202D4424577
:100A3000C8BF424600EB40008018226348BF002038
:100A400002D44045C8BF4046A063C84341EA4002C3
:100A500002F00702D3431B0703F0E043A26043EA1E
:100A60000233336040012A680CEA020242EA410183
:100A700000F020000843206228604FF40051A06B72
:100A80006861A06BA861A06BE861BDE8FC412A48E1
:100A900000F0E5BABDE8F381F8B500F039FB00F0ED
:100AA00053F800F047FB00F0C5FB00F0DBFB00F063
:100AB0002EFC00F0BDFC1C4C204D214E214F00208F
:100AC000A061E061606140F66300E06040F2CF50F9
:100AD0002063284600F00DFE304600F00AFE28464E
:100AE00001F09CF8304601F099F8284600F034FEF9
:100AF000304600F031FE0021384601F078FC042138
:100B0000384601F074FC0821384601F070FC30468C
:100B100000F0EFFD012204F11001284601F05FF919
:100B2000284601F0E2F8FEE79400002000080140AA
:100B300020080040100C014000100140D0000020AF
:100B4000000100205400002000B593B009A828211E
:100B500001F032FF04A8142101F02EFF6846102195
:100B600001F02AFF0120099000214FF480300A9003
:100B700011900B914FF4E0100122022112900D927E
:100B8000109109A8FFF7B2FA0F20022104900591F5
:100B900000204FF48061069007910890022104A87C
:100BA000FFF7C2FC022000904FF40041029168461A
:100BB00001F006FF13B000BD704770470901020045
:100BC00081B006D5414A00F00F00104400F8041C23
:100BD00001E03F4B195401B0704710B50446072C93
:100BE00018BF062C07D0052C1CBF042C032C02D0E8
:100BF000A22100F067F837490A684FF6FF00240287
:100C0000024004F4E0641443334804430C6010BD14
:100C1000F8B51546102D04464FEA010631A703D357
:100C2000BA213846FFF7C9FF102E03D3BB2138463F
:100C3000FFF7C3FF27480168C1F30220C0F1070195
:100C4000052928BF0421021D072A34BF0020C01E29
:100C5000012202FA01F1491E0E40864002FA00F01C
:100C6000401E054045EA06012046BDE8F440A5E7E0
:100C700038B50446250002D5CE2100F023F800F057
:100C80001CF81648FFE702FA04F46D0940F8254005
:100C900031BD10B5401EB0F1807F01D3012010BDE1
:100CA0000F4C60600F214FF0FF30FFF787FF0022ED
:100CB000A26007202060002010BD012204F01F0464
:100CC0007047000007A0FFF778BF000018ED00E0B4
:100CD00000E400E00CED00E00000FA0500E100E0B7
:100CE00010E000E0453A5C4F4E4520574845454CE2
:100CF00020484F564552424F4152445C64656C65F2
:100D000074655C6D6173746572325C44726976659A
:100D100072735C53544D3332463178785F48414C9E
:100D20005F4472697665725C5372635C73746D3391
:100D300032663178785F68616C5F636F7274657872
:100D40002E6300002DE9F84F82460027DFF82803C4
:100D500082451CBFDFF8240382450E460DD0DFF824
:100D6000200382451FBFDFF81C038245DFF818030C
:100D7000824502D0CD2100F053F93068010402D041
:100D8000000C000402D0CE2100F04AF9706800285F
:100D900018BF012822D0112818BF02281ED01228FF
:100DA0001CBFDFF8E812884218D0DFF8E41288424E
:100DB0001CBFDFF8E012884210D0DFF8DC12884256
:100DC0001CBFDFF8D812884208D0DFF8D41288425E
:100DD00018BF032802D0CF2100F022F9B846DFF86F
:100DE000C442DFF894B20120356800FA08F909EA34
:100DF00005054D4540F0FC80DA451CBFDFF87C025C
:100E000082450FD0DFF8780282451FBFDFF87402F9
:100E10008245DFF87402824504D00FF29420DD2170
:100E2000FFF7CBFE71680FF28820002955D0012909
:100E300020D0022937D0032967D0112926D01229C2
:100E40003ED0DFF8482291421CBFDFF84C2291428D
:100E500043D0DFF83C2291421CBFDFF84022914290
:100E60003BD0DFF8302291421CBFDFF834229142A0
:100E700033D04BE0F168022918BF012904D00329BF
:100E80001CBFE521FFF799FEF7683FE0F1680229F2
:100E900018BF012904D003291CBFEC21FFF78DFEE8
:100EA000F7683F1D32E0F168022918BF012904D01C
:100EB00003291CBFF321FFF780FEF768083725E000
:100EC000F168022918BF012904D003291CBFFA21A7
:100ED000FFF773FEF7680C3718E0B16849B10129D4
:100EE0000BD002290DD040F20711FFF766FEB06863
:100EF00008B904270AE0012803D10827CAF810908E
:100F000004E00827CAF8149000E00027B5F5807FB8
:100F100003D251464FEA880204E0A8F108020AF120
:100F2000040192000F200B6800FA02FC23EA0C0374
:100F300007FA02F21A430A607168CA0058D55A4982
:100F40000A6842F001020A604FEA88030968574ABA
:100F500001F00101009103F00C0300994FEA9801A0
:100F600052F821C098402CEA0000DA4508BF4FF043
:100F7000000C15D0DFF804C1E24508BF4FF0010CAA
:100F80000ED0DFF8FCC0E24508BF4FF0020C07D0DE
:100F9000DFF8F0C0E2450CBF4FF0030C4FF0040C3B
:100FA0000CFA03F3034342F82130E8437168CA03A3
:100FB00003D522682A43226002E0216801402160B3
:100FC00071688A0361684CBF2943014061607168A0
:100FD000CA02A1684CBF29430140A16071688A021E
:100FE00003D5E0680543E56002E0E1680840E060A1
:100FF00008F10108B8F10F0F7FF6F5AEBDE8F18FEB
:1010000038B50D00044603D140F2C31100F008F8D2
:10101000A16815EA010018BF0120C0B232BD00006E
:1010200023A0FFF7CABD0000F8B504460D4628000E
:101030004FEA02061EA703D140F2E31100F00CF8BC
:10104000300006D0012E05D04FF4F27100F004F804
:1010500000E02D042561F1BD3846FFF7AEBD38B57F
:101060000D00044603D140F2F911FFF7D9FFE16802
:101070004D40E56031BD000000080140000C01401A
:101080000010014000140140001801400000111040
:10109000000021100000311000001210000022108A
:1010A0000000321000040140181002400800014006
:1010B000453A5C4F4E4520574845454C20484F56D1
:1010C0004552424F4152445C64656C6574655C6D89
:1010D0006173746572325C447269766572735C53D5
:1010E000544D3332463178785F48414C5F447269E1
:1010F0007665725C5372635C73746D3332663178FB
:10110000785F68616C5F6770696F2E630000000034
:1011100080B50748016841F0100101600320FFF726
:101120005CFD0020FFF782FB01F090FD002002BD76
:101130000020024030B585B06846102101F03CFC2B
:101140003248334D046844F0100404600168314CA7
:1011500001F0100104910499016841F0200101603F
:10116000026802F0200204920499016841F004012F
:101170000160026802F004020492002204990168EE
:1011800041F0080101604FF4C041006800F0080020
:10119000049004982046FFF747FF00224FF4E041F7
:1011A0002846FFF741FF4FF4C04000F03BF800F045
:1011B00035F84FF4004003210090019100F02EF823
:1011C00049F6F8000321009001916946124C20462F
:1011D000FFF7B8FD48F63F600321009001912846D3
:1011E0006946FFF7AFFD4FF4E04000F01BF82846DA
:1011F0006946FFF7A7FD4FF4E060002100900191E0
:10120000029100F00BF805B030BD0000181002404C
:10121000000C0140001001400008014020466946D2
:10122000FFF790BD01210090019100200221029062
:101230000391704780B50A48016841F001010160DF
:101240000022006800F001000090002100980B20AF
:10125000FFF7DEFCBDE802400B20FFF709BD00BF31
:101260001410024038B500BF70A08CB001AA01680C
:1012700000230024002582E83800009104A82021E2
:1012800001F09AFB0020614C614DA06025600120B7
:10129000E060002060614FF46020E0610020606049
:1012A00001202061204600F04DF908B1FFF784FCD1
:1012B0004FF4C02000906946204600F094FF08B12A
:1012C000FFF77AFC00200190012106200291039093
:1012D00001A9204600F0CAFA08B1FFF76DFC022010
:1012E00001210490059108914FF4E04000210691FE
:1012F0000B90012100200A910990079004A9204633
:1013000000F0F9FD08B1FFF757FC0DB030BD3EB558
:10131000684600210022002380E80E0001203D4C99
:101320003D4DE060A1604FF46020E061616101200B
:10133000206161602560204600F004F908B1FFF7E4
:101340003BFC012000900190694606200290204657
:1013500000F08CFA08B1FFF72FFC37BD30B585B02F
:10136000044601A8102101F027FB2268284B2B48D6
:101370002B499A4226D10A682A4D42F400720A602B
:101380000B6803F4007300F02EF8052200F033F828
:101390002548286000206860A8608020E8604FF43D
:1013A000007028614FF4006068612020A86100206F
:1013B000E861284601F06CFC08B1FFF7FDFB2562EF
:1013C0006C620EE0144B9A420BD10A6842F48062C0
:1013D0000A600B6803F4806300F005F8022200F055
:1013E0000AF805B030BD00930323009A0A6842F062
:1013F00004020A607047096801F004010091009935
:101400000192029301A9FFF79DBC0000D0000020CB
:101410000024014000010020002801400008014094
:1014200018100240100000200800024000000000D8
:1014300030B500BF41A13C4C3C4DD1E9002389B0FF
:1014400002A8CDE900231C2101F0B6FA002060605B
:10145000A060256040F6A230E06000202061A0611D
:10146000204600F071FF08B1FFF7A6FB00200090B6
:1014700001906946204601F0F5FD08B1FFF79CFB9D
:10148000602000210290039104910691002200F057
:1014900014F808B1FFF790FB042200F00EF808B131
:1014A000FFF78AFB082200F008F808B1FFF784FB79
:1014B000204600F017F809B030BD02A9204600F020
:1014C000E5BF81B000681949884209D11848016810
:1014D00041F004010160006800F0040000900098F1
:1014E00001B0704718B585B0044601A8102101F07D
:1014F00063FA21680D4A914213D10E48026842F006
:10150000080202604FF4E071006800F008000090EB
:1015100002220098084801910292049201A9FFF763
:1015200011FC06B010BD000054000020000800406F
:101530001C10024018100240000C01400000000086
:1015400000000000F8B5044600250026002C00F03D
:10155000CE80206800F01DF91CBFDFF81C15884202
:1015600003D04FF4C17100F01AF96068002818BF69
:10157000B0F5006F03D040F2831100F010F9A068BD
:10158000002818BFB0F5807F03D04FF4C27100F07F
:1015900006F9E068002818BF012803D040F2851141
:1015A00000F0FDF8E069002818BFB0F5003F11D049
:1015B000B0F5C02F18BFB0F5002F0BD0B0F5202F1D
:1015C0001CBFB0F5402FB0F5602F03D04FF4C371AE
:1015D00000F0E5F8A068C8B1206908B1102803D967
:1015E0004FF4C57100F0DBF8606978B1012805D0CF
:1015F00040F28B1100F0D3F8606938B1A06908B1EE
:10160000092803D34FF4C77100F0C9F804F1240787
:10161000786820B9BD6038702046FFF79FFE00F063
:10162000B5F87968CA065ED401005CD1796821F406
:10163000885141F0020179606368E269E16813430F
:10164000A268B2F5807F14BF012A4FF480756269E9
:10165000012A43EA41030FD131B9A169491E490367
:1016600041F400610D4307E0796841F020017960A1
:10167000B96841F00101B96021684A6822F4694201
:1016800015434D602268DFF8FC1395680D401D433B
:101690009560A168B1F5807F18BF012902D1266944
:1016A000761E36052168CA6A22F470021643CE629D
:1016B0002468DFF84014A2680A409A4208D1002149
:1016C000B960796821F0020141F001017960F2BD51
:1016D000786820F0020040F010007860B86840F0B0
:1016E0000100B86003E0786840F0100078600120E5
:1016F000F2BD7CB500F087F818BFA04203D040F2DD
:10170000033100F07CF805F124063178012901D17C
:10171000022076BD00F066F801001CD17268DFF887
:10172000DC1300F063F810D10B6813F4702F0CD0A9
:1017300000F051F801D500F047F87268D30446BFB5
:10174000B26822F00602002202E000F02EF8F1E773
:1017500000F032F85FE025E038B500F081F81CBFFA
:10176000DFF89C13884203D04FF45D7100F047F816
:1017700000F06AF801D1022032BD00F005F8010046
:1017800001D100F066F85CE001202870204600F0EE
:10179000C1B9DFF864130FF2284788427047384612
:1017A000FFF70BBA0022327076BD736823F4801302
:1017B0007360526853057047B260002232706FF058
:1017C00002022B681A607047726822F4005242F4D9
:1017D000805272607047726842F4801272600B68C7
:1017E0005A0570470120307028464DE10A4042F406
:1017F00080727260DFF810132A68A24270470FF2FD
:10180000C030FFF7DAB90546DFF8EC122868DFF8D8
:10181000F042884270472A68936803F46023B3F566
:10182000602F09D1A24203D1096811F4702F03D1AE
:10183000916841F4A00102E0916841F48011916047
:1018400076BD0021297032BD04F1240529780129D3
:101850007047696821F4885141F00101696070475F
:101860000446DFF894122068884270472DE9FC4155
:101870000646002500950C463068DFF87C720FF2B2
:101880004038B8421CBF7C49884203D040F2AA616C
:1018900000F0F4F82068002818BF012823D002289F
:1018A00018BF03281FD0042818BF05281BD00628FE
:1018B00018BF072817D0082818BF092813D00A28EE
:1018C00018BF0B280FD00C2818BF0D280BD00E28DE
:1018D00018BF0F2807D0102818BF112803D040F2D6
:1018E000AB6100F0CBF86068012818BF02281FD058
:1018F000032818BF04281BD0052818BF062817D0B6
:10190000072818BF082813D0092818BF0A280FD0A5
:101910000B2818BF0C280BD00D2818BF0E2807D095
:101920000F2818BF102803D040F2AC6100F0A6F8D1
:10193000A068002818BF01280FD0022818BF03286C
:101940000BD0042818BF052807D0062818BF072881
:1019500003D040F2AD6100F091F806F12402107856
:10196000012808BF022000F08580012111701F238B
:10197000D4F804C020683168BCF1070F0ED2ACF176
:10198000010C0CEB8C0CD1F834E003FA0CF32EEACA
:10199000030300FA0CF0184348631FE0BCF10C0F7E
:1019A0000ED8ACF1070C0CEB8C0CD1F830E003FA3C
:1019B0000CF32EEA030300FA0CF0184308630DE061
:1019C000ACF10D0C0CEB8C0CD1F82CE003FA0CF301
:1019D0002EEA030300FA0CF01843C8624FF0070C1C
:1019E0002368A06831680A2B0DD30A3B03EB43033D
:1019F000D1F80CE00CFA03FC2EEA0C0C984040EAFB
:101A00000C00C8600BE003EB4303D1F810E00CFAC4
:101A100003FC2EEA0C0C984040EA0C000861206898
:101A2000102818BF112822D13068B8421AD137487F
:101A300001680B021BD4036843F4000303602068B1
:101A4000102814D12F4B32481C68B4FBF0F00A2147
:101A500048430090009800281EBF0099491E00913D
:101A6000F8D104E00125506840F0200050600020CB
:101A700010702846BDE8F681002801404046FFF777
:101A80009CB80000FDF7E1FF38B504460020009047
:101A900020688168CA072AD481681D4A41F0010183
:101AA000816018480168B1FBF2F2009202E00098F0
:101AB000401E009000980028F9D1FEF7B1FE0546BF
:101AC00021688868C10712D4FEF7AAFE401B0328CC
:101AD000F6D304F124000022416841F01001416076
:101AE000816841F0010181600270012032BD002057
:101AF00032BD0000FE0E1FFF00240140FEFDFFFF6F
:101B0000002801400C00002004240140082401406A
:101B100040420F0038B5044620688168CA0719D5CD
:101B20008168490849008160FEF77AFE0546206811
:101B30008168C8070ED5FEF773FE401B0328F6D355
:101B4000A06A40F01000A062E06A40F00100E0628C
:101B5000012032BD002032BD416A8A6A12F0500F66
:101B60001BD1886A40F4007088620A68906800F4AB
:101B70006020B0F5602F04BFC86800280AD18A6AC7
:101B800022F480728A62886AC20403D4886A40F0B0
:101B9000010088620846FEF769BE096A0A6B1047B1
:101BA000406A01F0F3BA0000406A816A41F04001E6
:101BB0008162C16A41F00401C16201F0E8BA00002B
:101BC000453A5C4F4E4520574845454C20484F56B6
:101BD0004552424F4152445C64656C6574655C6D6E
:101BE0006173746572325C447269766572735C53BA
:101BF000544D3332463178785F48414C5F447269C6
:101C00007665725C5372635C73746D3332663178DF
:101C1000785F68616C5F6164632E6300F8B50446A9
:101C20000020009000F083F81CBFDFF8681688429F
:101C300002D0952100F086F804F1240631780129BC
:101C400001D10220F2BD0120307000F0C5F805007E
:101C500047D1706820F4885040F002007060022084
:101C600000F050FF00F068F8400001E00098401ECE
:101C7000009000980028F9D12046FFF705FF206862
:101C8000816841F008018160FEF7CAFD07462068BF
:101C900081680A0714D5FEF7C3FDC01B0B28F6D3D5
:101CA00004E0FEF7BDFDC01B0B2810D3706820F0C8
:101CB000020040F010007060002030700120F2BD82
:101CC000816841F004018160FEF7AAFD07462068A3
:101CD00081684807E5D4706820F0020040F00100F8
:101CE0007060002030702846F2BD7CB500F057F8D7
:101CF00018BFA04202D0FD2100F024F805F124060F
:101D00003178012901D1022076BD00F028F80100C8
:101D100009D100F029F85CBF0023B36000F016F889
:101D20005D0502D443E00022327076BD0446DFF840
:101D30006815206888427047DFF860150A68B2FBB2
:101D4000F0F070470FF28C50FEF737BF0022327070
:101D50006FF004022B681A602A68536870470120EC
:101D600030702846FFF790BE7268DFF834150A40DD
:101D700042F480527260DFF82C152A68A24207D123
:101D80000A6812F4702F03D0726842F4801202E0E5
:101D9000726822F4801272607268D305704705463B
:101DA000DFF8F4142868DFF8EC4488427047936841
:101DB00003F4E043B3F5E04F09D1A24203D109682F
:101DC00011F4702F03D1916841F4021102E091687F
:101DD00041F40041916076BD2046FFF79BBE2DE99E
:101DE000F04104468CB00D462068DFF8AC140FF2C9
:101DF000E4478842904604D04FF42D713846FEF7F0
:101E0000DCFEE068002818BF012804D040F2B521AC
:101E10003846FEF7D2FE04F124073878012808BFBF
:101E200002205CD001213970DFF86804009000F0D6
:101E300059F807D0786840F02000786000213970A8
:101E400001204CE02046FFF71FFE064618B9684601
:101E5000FFF71AFE0646002E3ED17968DFF84804E7
:101E6000014041F48071796021684868410505D5D9
:101E7000786820F4005040F480507860002038707A
:101E8000B8604346216ADFF824048862216ADFF8DB
:101E90002004C862216ADFF81C0408636FF00200A6
:101EA000226810602A462068816841F48071816050
:101EB000206800F14C01206A00F08DFF20688168E5
:101EC00001F46021B1F5602F81680CBF41F4A001DD
:101ED00041F48011816001E00020387030460CB080
:101EE000BDE8F081806800F46020B0F5602F704795
:101EF0003046FEF762BE2DE9FC4105460024009401
:101F00000F462868DFF890830FF2C83640451CBFA3
:101F1000DFF88013884203D040F2FA31FFF7E8FF80
:101F20003868002818BF012823D0022818BF0328CA
:101F30001FD0042818BF05281BD0062818BF072863
:101F400017D0082818BF092813D00A2818BF0B2853
:101F50000FD00C2818BF0D280BD00E2818BF0F2843
:101F600007D0102818BF112803D040F2FB31FFF72B
:101F7000BFFFB868002818BF01280FD0022818BF7B
:101F800003280BD0042818BF052807D0062818BF3F
:101F9000072803D04FF47F71FFF7AAFFB869002824
:101FA00018BF012803D040F2FD31FFF7A1FFF86907
:101FB000B0F5005F18BFB0F5405F14D0B0F5804FAA
:101FC00018BFB0F5A04F0ED0B0F5C04F18BFB0F598
:101FD000805F08D0002818BFB0F5E04F03D040F272
:101FE000FE31FFF785FFF868B0F5805F03D340F25C
:101FF000FF31FFF77DFFA868E8B17868012818BFB6
:10200000022807D0032818BF042803D040F2034158
:10201000FFF76EFF386908B1042803D940F2044184
:10202000FFF766FF7869002818BF012803D040F247
:102030000541FFF75DFF05F124010878012808BF7D
:10204000022000F0C38001220A70A8687A6868B98B
:10205000012A08D12868826B3B68920D920542EAFA
:10206000C332826322E000F02FF91FE03869D5F80F
:1020700000C0131ADB1C03EB83031F269E4046F4AB
:102080004016F64390420CD3DCF838201640401E30
:1020900046EA0056386800FA03F33343CCF8383088
:1020A00004E0DCF838000640CCF838602A68906814
:1020B000C30705D4936881480340F86903439360DC
:1020C000B86901280BD1FA69B2F5E04F05D128684B
:1020D000426842F48062426001E000F0F5F87A69FB
:1020E000012A09D1B86928B92868426842F48052A7
:1020F000426001E000F0E8F83B68B8682A6807260B
:102100000A2B08D30A3B03EB4303D2F80CC000F0C0
:102110005FF8D06006E003EB4303D2F810C000F094
:1021200057F810613868102818BF112804D12868A2
:10213000826842F4000282607868012804D015D3D6
:1021400003280DD006D311E02A68536900F046F841
:10215000536110E02A68936900F040F893610AE047
:102160002A68D36900F03AF8D36104E02A68136A58
:1021700000F034F813623868102818BF112822D1F3
:10218000286840451AD14C48026813021BD40368E2
:1021900043F4000303603868102814D13F4B4848CB
:1021A0001D68B5FBF0F00A2250430090009800280B
:1021B0001EBF009A521E0092F8D104E00124486824
:1021C00040F020004860002008702046BDE8F681FD
:1021D0009E402CEA0606984030437047F8681B0B77
:1021E00040EA033370472DE9FC4107460024386874
:1021F000294E0FF2E008B0420D4604D040F2FF41F4
:102200004046FEF7DAFC2868002818BFB0F5803F8A
:102210001CD0B0F5003F18BFB0F5403F16D0B0F568
:10222000802F18BFB0F5A02F10D0B0F5C02F18BF69
:10223000B0F5E02F0AD0B0F5002F18BFB0F5102F81
:1022400004D04FF4A0614046FEF7B7FC07F124012B
:102250000878012808BF022018D001220A703868C7
:102260008268D3070DD4174B1A68D70709D4B04238
:1022700007D10C4A1368286823F4702303431360C2
:1022800001E000F021F8002008702046BDE8F6814A
:102290000000000000280140002401400C00002044
:1022A000FEDFFFFF04240140FEFDEFFF591B000885
:1022B000A11B0008A91B000808240140FE8FFFFF96
:1022C00040420F0008280140486840F02000486064
:1022D00001247047453A5C4F4E4520574845454CD0
:1022E00020484F564552424F4152445C64656C65EC
:1022F00074655C6D6173746572325C447269766595
:1023000072735C53544D3332463178785F48414C98
:102310005F4472697665725C5372635C73746D338B
:1023200032663178785F68616C5F6164635F65789D
:102330002E63000002206870211D206800F08EF9D5
:1023400001206870002032BD38B5040001D10120A1
:1023500032BD00F045F818BFB0F1804F0AD000F050
:102360007CF81CBFDFF80C11884203D040F2EE313C
:1023700000F033F8A068002818BF102808D02028E3
:102380001CBF4028602803D040F2EF3100F025F850
:10239000206900281CBFB0F5807FB0F5007F03D016
:1023A0004FF47C7100F019F8A069002818BF80284C
:1023B00003D040F2F13100F010F800F00AF818B93B
:1023C00000F003F8FFF77DF8B4E7002129702046FC
:1023D000704704F13C05687870472846FEF7EDBB6E
:1023E0002068DFF89410DFF894508842704770B589
:1023F00000F029F818BFB0F1804F0C4606D000F06D
:102400002CF81CBFDFF85C10884207D1002C18BFE5
:10241000042C07D0082C18BF0C2C03D040F24D41DF
:1024200000F017F800F020F82868B04205D1DFF876
:1024300054100A6842F400420A60016841F0010148
:102440000160002070BD0546DFF834602868B042A6
:102450007047DFF82800FEF7B0BBDFF82C10884289
:10246000704700000008004028680122214600F063
:102470003DBA000000080040002C01405C29000823
:10248000002C0140442C0140000400402DE9F041A3
:10249000064606F13C050F4628780128144608BF79
:1024A000022000F0C3800121002C18BF042C2970E9
:1024B000DFF8988108D0082C1CBF0C2C182C03D0F6
:1024C00040F6374100F0B4F83868602818BF70282B
:1024D00003D040F6384100F0ABF8B868002818BFC8
:1024E000022803D040F6394100F0A2F838690028EC
:1024F00018BF042803D040F63A4100F099F800F0E4
:102500009AF834B1042C26D0082C47D00C2C67D074
:1025100088E03368934218BFB3F1804F07D08B42F5
:1025200018BF834203D040F6424100F081F8306882
:10253000394600F0C7F83068816941F008018161CF
:102540003068816921F00401816131688A693869E4
:1025500002438A6166E03368934218BFB3F1804F4B
:1025600007D08B4218BF834203D040F6514100F0A0
:102570005FF83068394600F0EFF83068816941F45F
:10258000006181613068816921F480618161306816
:1025900081693A6941EA0221816143E033689342EB
:1025A00018BFB3F1804F07D08B4218BF834203D0CE
:1025B0004FF4466100F03CF83068394600F014F9F9
:1025C0003068C16941F00801C1613068C16921F01A
:1025D0000401C1613168CA6938690243CA6121E0F6
:1025E0003368934218BFB3F1804F07D08B4218BFB6
:1025F000834203D040F66F4100F01AF83068394644
:1026000000F043F93068C16941F40061C16130688C
:10261000C16921F48061C1613068C1693A6941EAE8
:102620000221C1610120687000202870BDE8F0819E
:102630004046FEF7C2BA02206870DFF81810DFF8D3
:102640001000DFF814207047000000005C2900082B
:102650000008004000040040002C014070B5DFF885
:10266000F0620368DFF8E442DFF8E852B04218BFD6
:10267000B0F1804F03D0A84218BFA04209D14A68E8
:1026800023F070031343B0421CBFB0F1804FA84247
:1026900001D0A04203D1CA6823F4407313434A69AE
:1026A00023F0800313430360B0428A68C2620A6861
:1026B000826203D10969DFF8A02211600122426120
:1026C00070BD00002DE9F84300F0DBF84008400041
:1026D0002062276A6668A06920F07301286840EAD2
:1026E0000108A86827F002070743DFF86402844264
:1026F00027D100F074F818BF082803D041F23F2119
:1027000000F027F8E86827F008070743A869B0F544
:10271000007F18BF002827F0040703D041F24C21A6
:1027200000F017F800F0A9F818BF002803D041F214
:102730004D2100F00EF8686926F440760643A8693A
:1027400006436660C4F81880686860632762BDE865
:10275000F1834846FEF731BA2DE9F84300F091F8CD
:1027600020F010002062216A6668A76900F0B7F8BF
:1027700021F0200141EA0018DFF8D4118C4229D160
:1027800000F02DF818BF082803D041F28921FFF787
:10279000E0FFE86828F0800141EA001020F04008DE
:1027A000A869B0F5007F18BF002803D041F2972137
:1027B000FFF7CFFF00F061F818BF002803D041F207
:1027C0009821FFF7C6FF6969A86926F440660143AE
:1027D00046EA81066660A7616868A06349E0E86828
:1027E0000FF27819002870472DE9F84300F049F8F6
:1027F00020F480702062216A6668E769286827F003
:1028000073070743A86821F4007141EA0028DFF844
:1028100040118C4229D1FFF7E2FF18BF082803D0EE
:1028200041F2D421FFF795FFE86828F4006141EAFE
:10283000002020F48068A869B0F5007F18BF002848
:1028400003D041F2E121FFF784FF00F016F818BF32
:10285000002803D041F2E221FFF77BFF6969A869F4
:1028600026F44056014346EA01166660E76168684F
:10287000E063C4F82080BDE8F1836869B0F5807F2B
:10288000704704460D46206A70472DE9F041FFF776
:10289000F8FF20F480502062216A6668E76900F042
:1028A0001EF821F4005141EA0038DFF8A4108C42F0
:1028B0000DD1FFF7E2FF18BF002803D041F21F310E
:1028C000FFF7C7FD686926F4804646EA8016666011
:1028D000E76168682064C4F82080BDE8F08128685A
:1028E00027F4E64747EA0027A8687047F8B5054689
:1028F000DFF85C0019A7854218BFB5F1804F0C4680
:1029000016460AD0134885421CBF1048854204D0A1
:1029100041F213513846FEF750F9002C18BF042C31
:1029200009D0082C1CBF0C2C182C04D041F21451D7
:102930003846FEF742F9286A0121A14088432862FF
:1029400006FA04F4286A04432C62F1BD0008004032
:10295000002C014000040040302C0140453A5C4FFF
:102960004E4520574845454C20484F564552424F0A
:102970004152445C64656C6574655C6D617374653B
:1029800072325C447269766572735C53544D3332B3
:10299000463178785F48414C5F4472697665725C75
:1029A0005372635C73746D3332663178785F68613B
:1029B0006C5F74696D2E6300002200F0E9BB0000BB
:1029C0002DE9F84305460FF21028287810F0130F70
:1029D00002D17C2100F092F82878794FC1075FD5A9
:1029E0006868002818BFB0F5807F08D0B0F5007F78
:1029F00018BFB0F5407F02D0822100F07FF8B8699F
:102A00000024C10009D4B86940F08050B8610124A5
:102A1000B86900F08050009000986A4E3168C8058F
:102A200017D4306840F480703060FDF7F9FE8146BD
:102A30003168C8050DD4FDF7F3FEA0EB0900652849
:102A4000F6D3032058E0FDF7EBFE801B484519D371
:102A5000F7E7F86910F440701EBF696801F440712F
:102A6000884212D05849F86901220A6020F4407067
:102A700000220A60F861C00707D5FDF7D1FE0646BF
:102A800041F28939F8698107DDD5F969686821F46F
:102A900040710143F9611CB1B86920F08050B86100
:102AA0002978880714D5A868002818BFB0F5804F8A
:102AB00008D0B0F5004F18BFB0F5404F02D0C92183
:102AC00000F01CF83968A86821F4404101433960DE
:102AD0002878C1060FD5E868B0F5800F18BF002828
:102AE00003D040F2251100F009F83968E86821F4B4
:102AF0008001014339600020BDE8F2834046FEF7C3
:102B00005CB8000070B50646002516F0130F04D11E
:102B10004FF4D37130A0FEF750F8012E2B4C23D088
:102B2000022E41D0102E48D160682168CA0144D5D8
:102B300041A2C0F38341C003555C0BD5606800BF60
:102B400041A22349C0F34040105CB1FBF0F128469C
:102B50000D4600E01F484543606841022DD46D00DA
:102B60000320B5FBF0F528E0206A40F20231014075
:102B7000B1F5817F08BF4FF400451ED000F44072CC
:102B8000B2F5007F05D1606A810716D549F6404548
:102B900013E000F44070B0F5407F0ED1206881034F
:102BA0000BD54FF2244508E0FDF7E0FD6168C1F365
:102BB0008131491C4900B0FBF1F5284670BD000089
:102BC00004100240007000404004424200100240E5
:102BD00000127A0000093D00453A5C4F4E452057EF
:102BE0004845454C20484F564552424F4152445C5F
:102BF00064656C6574655C6D6173746572325C44A8
:102C00007269766572735C53544D3332463178780D
:102C10005F48414C5F4472697665725C5372635CD5
:102C200073746D3332663178785F68616C5F72639C
:102C3000635F65782E630000020304050607080938
:102C40000A0B0C0D0E0F1010010200000E4881B08F
:102C5000016841F001010160026802F00102009286
:102C60000099416841F080514160406800F0805017
:102C7000009000980548016821F0E06141F0007182
:102C8000016001B0704700BF18100240040001400D
:102C900038B5040001D1012032BD2068DFF81413DB
:102CA0000FF25C3588421CBFDFF80C13884215D048
:102CB000DFF8081388421CBFDFF8041388420DD0E8
:102CC000DFF8001388421FBFDFF8FC128842DFF8EC
:102CD000FC12884202D0AA2100F076F86068002831
:102CE0001CBF1028B0F5804F02D0AB2100F06CF86B
:102CF000A068402818BF002802D0AC2100F064F87A
:102D0000E068802818BF002802D0AD2100F05CF8F0
:102D1000206900281CBFB0F5807FB0F5007F02D08D
:102D2000AE2100F051F8606900281CBFB0F5806F3B
:102D3000B0F5006F02D0AF2100F046F8A06900287E
:102D400018BF202802D0B02100F03EF8E06900282A
:102D500018BFB0F5805F08D0B0F5005F18BFB0F5C0
:102D6000405F02D0B12100F02FF82268DFF8600246
:102D70008018142304F13801B0FBF3F3DFF8540298
:102D800048609B008B60022084F821001368606813
:102D90006FF30D130343A0680343E0680343206906
:102DA000034360690343A0690343E069034313607D
:102DB00000200860012000F001F832BD84F82100F5
:102DC000002084F8200070472846FDF7F6BE0FF279
:102DD0003020FDF7F2BE2DE9F843064689469046BD
:102DE0001C46002514B1B4F5803F03D340F27F1197
:102DF000FFF7EDFF96F82010012908BF02202FD021
:102E0000012086F8200096F82100012824D1022113
:102E100006F12C0786F82110FD602346306800F08B
:102E200021F84946304600F0D9F83168386820B1B9
:102E30000A6842F00E020A6008E0086820F0040008
:102E400008603068016841F00A010160306802687A
:102E500042F00102026002E086F820500225284676
:102E6000BDE8F283016849084900016042467047A5
:102E70002DE9F84F00F1280204275169524BD1F88F
:102E800000E00468544925689669DFF83881DFF866
:102E90003091DFF828A1DFF820B1DFF818C1B74082
:102EA0001EEA070F2DD06F072BD52568AD0603D47A
:102EB000256825F0040525600468644508BF0423DF
:102EC00018D05C4508BF402314D0544508BF4FF4C8
:102ED00080630FD04C4508BF4FF480430AD044456F
:102EE00008BF4FF4802305D09C420CBF4FF48003F1
:102EF0004FF080630B605168002957D0BDE8F44F54
:102F000008470227B7401EEA070F32D0AF0730D577
:102F10002568AD0606D4256825F00A05256001243C
:102F200080F821400468644508BF022318D05C453E
:102F300008BF202314D0544508BF4FF400730FD0AE
:102F40004C4508BF4FF400530AD0444508BF4FF426
:102F5000003305D09C420CBF4FF400134FF00073B8
:102F60000B60002180F820101168F9B1BDE8F44F22
:102F70000847082101FA06F61EEA060F16D02907AF
:102F800014D5216821F00E012160012391698B4045
:102F900051694B6001230021136180F8201080F8F3
:102FA0002130916811B1BDE8F44F0847BDE8F18FB9
:102FB00000000000080002401C00024030000240F7
:102FC00044000240580002406C0002408000024071
:102FD000F8FFFDBF000002400400024038B5046C59
:102FE0000125A540C46B65600468636040681028D3
:102FF00002D1A260E16031BDA160E26031BD00009C
:10300000453A5C4F4E4520574845454C20484F5661
:103010004552424F4152445C64656C6574655C6D19
:103020006173746572325C447269766572735C5365
:10303000544D3332463178785F48414C5F44726971
:103040007665725C5372635C73746D33326631788B
:10305000785F68616C5F646D612E6300DFF8C41097
:103060008842704770B504460D4600F053F818BF0B
:10307000B0F1804F09D0FFF7F1FF1CBF284988420B
:1030800003D04FF4C76100F042F82868002818BF49
:1030900010280FD0202818BF30280BD0402818BF88
:1030A000502807D0602818BF702803D040F239613B
:1030B00000F02DF86868802818BF002803D040F27F
:1030C0003A6100F024F804F13C010878012801D1AC
:1030D000022070BD01220A700220487020684268F8
:1030E00022F07002426022685368286803435360EC
:1030F0002068826822F08002826022689368686893
:1031000003439360012048700020087070BD304672
:10311000FDF753BD2068044904A6884270470000AB
:103120000008004000040040002C0140453A5C4F7C
:103130004E4520574845454C20484F564552424F32
:103140004152445C64656C6574655C6D6173746563
:1031500072325C447269766572735C53544D3332DB
:10316000463178785F48414C5F4472697665725C9D
:103170005372635C73746D3332663178785F686163
:103180006C5F74696D5F65782E63000070477047EF
:1031900000B500BF130096469446103928BFA0E83A
:1031A0000C50FAD85FEA417C28BF0CC048BF40F8F9
:1031B000042BC90728BF20F8022B48BF00F8012BB9
:1031C00000BD00000E49086840F0010008604A6830
:1031D0000C4802404A600B680B4803400B600868CB
:1031E00020F4802008604FF41F004A6822F4FE0299
:1031F0004A6088604FF00060044908607047000032
:10320000001002400000FFF8FFFFF6FE08ED00E0AE
:103210000000000000000000010203040607080986
:1032200019E050F8042BD30744BFA9F101039A1801
:10323000091F0023042942F8043BF9D25FEA817C8C
:10324000134604D54FF0000CA2F800C09B1CC90720
:1032500044BF0021197050F8041B0029E1D17047C8
:1032600010B450F8041B79B1026843680244083076
:10327000DC0744BFA9F10104E31852F8044B43F8FA
:10328000044B091FF9D1ECE710BC704710B5074992
:1032900079441831064C7C44163404E00A68081D51
:1032A000114488470146A142F8D110BD0800000032
:1032B000280000006DFFFFFF20010000100000202B
:1032C000000000009DFFFFFF1000000094000000C0
:1032D00000000020000000007047FEE7FEE7FEE768
:1032E000FEE770477047704700F006B80148FFF7E7
:1032F000BFBD00001000002002494A68087882180B
:103300004A6070470000002000F00DF8002801D04E
:10331000FFF7BCFFAFF300800020AFF30080FDF7A4
:10332000BBFB00F002F80120704700F001B800007C
:103330000746384600F002F8FBE7000080B5AFF31F
:103340000080024A11001820ABBEFBE726000200F5
:103350000148804701480047C53100087133000823
:1033600001000000000000001000000000A24A045C
:10337000AFF30080AFF30080FFF7C6FF000000004E
:1033800001020304FFF7FEBFFFF7FEBFFFF7FEBF1A
:10339000FFF7FEBFFFF7FEBFFFF7FEBFFFF7FEBF61
:1033A000FFF7FEBFFFF7FEBFFFF7FEBFFFF7FEBF51
:1033B000FFF7FEBFFFF7FEBFFFF7FEBFFFF7FEBF41
:1033C000FFF7FEBFFFF7FEBFFFF7FEBFFFF7FEBF31
:1033D000FFF7FEBFFFF7FEBFFFF7FEBFFFF7FEBF21
:1033E000FFF7FEBFFFF7FEBFFFF7FEBFFFF7FEBF11
:1033F000FFF7FEBFFFF7FEBFFFF7FEBFFFF7FEBF01
:10340000FFF7FEBFFFF7FEBFFFF7FEBFFFF7FEBFF0
:10341000FFF7FEBFFFF7FEBFFFF7FEBFFFF7FEBFE0
:0C342000FFF7FEBFFFF7FEBFFFF7FEBF87
:04000005080033714B
:00000001FF
